using System;

using Newtonsoft.Json;

using Stratis.DevEx.Ethereum.Explorers;

namespace Stratis.DevEx.Ethereum
{
    public class BlockscoutSampleData
    {
        private const string Tx = "[{\"priority_fee\":\"130622500000000\",\"tx_burnt_fee\":\"365743\",\"raw_input\":\"0xfdf435e900000000000000000000000000000000000000000000000000000000000000040000000000000000000000009bd5d5d2880e625c7b29710c7385e7c021e071180000000000000000000000000000000000000000000001c8e8abd5f35f1be765000000000000000000000000000000000000000000000000000000000000000000000000000000000000000000000000000000000000000000000000000000c00000000000000000000000000000000000000000000000000000000000000001000000000000000000000000000000000000000000000000000000000000000328de7598731b2f44577064f6c5b7b2cc4f510311d40de6d95a85b1c7cf9b47e2ed273115ead9d3dfadb94e792fc05a4ade6ffdb097f60b466c79fd794de5e21b6cd68f6d90394be9f5972f19f660b8fcb1cf39bef566000e6b3c57fc93e62432\",\"result\":\"success\",\"hash\":\"0xf77721e591cc90745f224475a791e7856a6389278c8a32432bfc56b5a8e3729c\",\"max_fee_per_gas\":\"2500000014\",\"revert_reason\":null,\"confirmation_duration\":[0,1.5e4],\"transaction_burnt_fee\":\"365743\",\"type\":2,\"token_transfers_overflow\":null,\"confirmations\":53,\"position\":0,\"max_priority_fee_per_gas\":\"2500000000\",\"transaction_tag\":null,\"created_contract\":null,\"value\":\"0\",\"from\":{\"ens_domain_name\":null,\"hash\":\"0x9bd5D5d2880E625C7b29710C7385E7C021e07118\",\"implementations\":[],\"is_contract\":false,\"is_scam\":false,\"is_verified\":false,\"metadata\":null,\"name\":null,\"private_tags\":[],\"proxy_type\":null,\"public_tags\":[],\"watchlist_names\":[]},\"gas_used\":\"52249\",\"status\":\"ok\",\"to\":{\"ens_domain_name\":null,\"hash\":\"0x07867c078F7a86120103A373c656Dbabd1EA58Ee\",\"implementations\":[{\"address\":\"0x211B792335ED962BcA838E691b5775e6EAa5C9c2\",\"name\":\"NetworkWithdraw\"}],\"is_contract\":true,\"is_scam\":false,\"is_verified\":true,\"metadata\":null,\"name\":\"ERC1967Proxy\",\"private_tags\":[],\"proxy_type\":\"eip1967\",\"public_tags\":[],\"watchlist_names\":[]},\"authorization_list\":[],\"method\":\"nodeClaim\",\"fee\":{\"type\":\"actual\",\"value\":\"130622500365743\"},\"actions\":[],\"gas_limit\":\"53039\",\"gas_price\":\"2500000007\",\"decoded_input\":{\"method_call\":\"nodeClaim(uint256 _index, address _account, uint256 _totalRewardAmount, uint256 _totalExitDepositAmount, bytes32[] _merkleProof, uint8 _claimType)\",\"method_id\":\"fdf435e9\",\"parameters\":[{\"name\":\"_index\",\"type\":\"uint256\",\"value\":\"4\"},{\"name\":\"_account\",\"type\":\"address\",\"value\":\"0x9bd5D5d2880E625C7b29710C7385E7C021e07118\"},{\"name\":\"_totalRewardAmount\",\"type\":\"uint256\",\"value\":\"8428481026890621773669\"},{\"name\":\"_totalExitDepositAmount\",\"type\":\"uint256\",\"value\":\"0\"},{\"name\":\"_merkleProof\",\"type\":\"bytes32[]\",\"value\":[\"0x28de7598731b2f44577064f6c5b7b2cc4f510311d40de6d95a85b1c7cf9b47e2\",\"0xed273115ead9d3dfadb94e792fc05a4ade6ffdb097f60b466c79fd794de5e21b\",\"0x6cd68f6d90394be9f5972f19f660b8fcb1cf39bef566000e6b3c57fc93e62432\"]},{\"name\":\"_claimType\",\"type\":\"uint8\",\"value\":\"1\"}]},\"token_transfers\":null,\"base_fee_per_gas\":\"7\",\"timestamp\":\"2025-03-24T11:19:10.000000Z\",\"nonce\":655,\"transaction_types\":[\"contract_call\"],\"exchange_rate\":null,\"block_number\":2134542,\"has_error_in_internal_transactions\":false},{\"priority_fee\":\"166892500000000\",\"tx_burnt_fee\":\"467299\",\"raw_input\":\"0x372500ab\",\"result\":\"success\",\"hash\":\"0xa2fda24c02d8a697353ae296b3f7826dd6cc2a23e966fb4e959251e1fd45dea2\",\"max_fee_per_gas\":\"2500000007\",\"revert_reason\":null,\"confirmation_duration\":[0,1.5e4],\"transaction_burnt_fee\":\"467299\",\"type\":2,\"token_transfers_overflow\":null,\"confirmations\":129,\"position\":0,\"max_priority_fee_per_gas\":\"2500000007\",\"transaction_tag\":null,\"created_contract\":null,\"value\":\"0\",\"from\":{\"ens_domain_name\":null,\"hash\":\"0x93D6e9449A3d552697568d4E124769899635a8B8\",\"implementations\":[],\"is_contract\":false,\"is_scam\":false,\"is_verified\":false,\"metadata\":null,\"name\":null,\"private_tags\":[],\"proxy_type\":null,\"public_tags\":[],\"watchlist_names\":[]},\"gas_used\":\"66757\",\"status\":\"ok\",\"to\":{\"ens_domain_name\":null,\"hash\":\"0x0000000000000000000000000000000000001002\",\"implementations\":[],\"is_contract\":true,\"is_scam\":false,\"is_verified\":false,\"metadata\":null,\"name\":null,\"private_tags\":[],\"proxy_type\":null,\"public_tags\":[],\"watchlist_names\":[]},\"authorization_list\":[],\"method\":\"0x372500ab\",\"fee\":{\"type\":\"actual\",\"value\":\"166892500467299\"},\"actions\":[],\"gas_limit\":\"85835\",\"gas_price\":\"2500000007\",\"decoded_input\":null,\"token_transfers\":null,\"base_fee_per_gas\":\"7\",\"timestamp\":\"2025-03-24T11:00:10.000000Z\",\"nonce\":138,\"transaction_types\":[\"contract_call\"],\"exchange_rate\":null,\"block_number\":2134466,\"has_error_in_internal_transactions\":false},{\"priority_fee\":\"305892500000000\",\"tx_burnt_fee\":\"856499\",\"raw_input\":\"0xca2b87af0000000000000000000000000000000000000000000000000000000000000060000000000000000000000000000000000000000000000000000000000000010000000000000000000000000000000000000000000000000000000000000001c00000000000000000000000000000000000000000000000000000000000000001000000000000000000000000000000000000000000000000000000000000002000000000000000000000000000000000000000000000000000000000000000308bb9f0d1ea21466c293ec82a0dbb4a390835df64976a39b6d95152c29dbe4dac92d382ce3d386da32583d1cd08cf951e00000000000000000000000000000000000000000000000000000000000000000000000000000000000000000000000100000000000000000000000000000000000000000000000000000000000000200000000000000000000000000000000000000000000000000000000000000060b36ab24147ab2cb7f4e2ef3269e946a60a7b44bd53762d92339ca3f9f3e036298bcef352ef8a62ceabd03840d93c6345038f8bbccfe2d5eaa2d09161c75f4230d78700773858c89518f5fef4d743528e0b64aeef5d478f4e123413d303acf116000000000000000000000000000000000000000000000000000000000000000150853ff79308b68fd4b4f192979e8e245ff3e7a7cd4dc235c57da7dcd4d5c80c\",\"result\":\"success\",\"hash\":\"0x051be9810c04efc37ae305220811fc226176bb45e27f5546a69624383f3bb0c1\",\"max_fee_per_gas\":\"2500000014\",\"revert_reason\":null,\"confirmation_duration\":[0,1.5e4],\"transaction_burnt_fee\":\"856499\",\"type\":2,\"token_transfers_overflow\":null,\"confirmations\":244,\"position\":0,\"max_priority_fee_per_gas\":\"2500000000\",\"transaction_tag\":null,\"created_contract\":null,\"value\":\"0\",\"from\":{\"ens_domain_name\":null,\"hash\":\"0x199CCf7f33A1D9E993529E92274586a22d15D5E7\",\"implementations\":[],\"is_contract\":false,\"is_scam\":false,\"is_verified\":false,\"metadata\":null,\"name\":null,\"private_tags\":[],\"proxy_type\":null,\"public_tags\":[],\"watchlist_names\":[]},\"gas_used\":\"122357\",\"status\":\"ok\",\"to\":{\"ens_domain_name\":null,\"hash\":\"0xaF527FC0a52EBb4676c64E08E59b15E442978618\",\"implementations\":[{\"address\":\"0x5C62eCF30E917E0104598A4f0994CA52378bb4fA\",\"name\":\"NodeDeposit\"}],\"is_contract\":true,\"is_scam\":false,\"is_verified\":true,\"metadata\":null,\"name\":\"ERC1967Proxy\",\"private_tags\":[],\"proxy_type\":\"eip1967\",\"public_tags\":[],\"watchlist_names\":[]},\"authorization_list\":[],\"method\":\"stake\",\"fee\":{\"type\":\"actual\",\"value\":\"305892500856499\"},\"actions\":[],\"gas_limit\":\"124495\",\"gas_price\":\"2500000007\",\"decoded_input\":{\"method_call\":\"stake(bytes[] _validatorPubkeys, bytes[] _validatorSignatures, bytes32[] _depositDataRoots)\",\"method_id\":\"ca2b87af\",\"parameters\":[{\"name\":\"_validatorPubkeys\",\"type\":\"bytes[]\",\"value\":[\"0x8bb9f0d1ea21466c293ec82a0dbb4a390835df64976a39b6d95152c29dbe4dac92d382ce3d386da32583d1cd08cf951e\"]},{\"name\":\"_validatorSignatures\",\"type\":\"bytes[]\",\"value\":[\"0xb36ab24147ab2cb7f4e2ef3269e946a60a7b44bd53762d92339ca3f9f3e036298bcef352ef8a62ceabd03840d93c6345038f8bbccfe2d5eaa2d09161c75f4230d78700773858c89518f5fef4d743528e0b64aeef5d478f4e123413d303acf116\"]},{\"name\":\"_depositDataRoots\",\"type\":\"bytes32[]\",\"value\":[\"0x50853ff79308b68fd4b4f192979e8e245ff3e7a7cd4dc235c57da7dcd4d5c80c\"]}]},\"token_transfers\":null,\"base_fee_per_gas\":\"7\",\"timestamp\":\"2025-03-24T10:31:25.000000Z\",\"nonce\":781,\"transaction_types\":[\"contract_call\"],\"exchange_rate\":null,\"block_number\":2134351,\"has_error_in_internal_transactions\":false},{\"priority_fee\":\"290587500000000\",\"tx_burnt_fee\":\"813645\",\"raw_input\":\"0xca2b87af0000000000000000000000000000000000000000000000000000000000000060000000000000000000000000000000000000000000000000000000000000010000000000000000000000000000000000000000000000000000000000000001c00000000000000000000000000000000000000000000000000000000000000001000000000000000000000000000000000000000000000000000000000000002000000000000000000000000000000000000000000000000000000000000000308d4024dc3e7dcf5ea768bb74405858d983930d29b3379961f06ee4fe6dd2583594beca3cebc1b8f3b65d7c3b769286490000000000000000000000000000000000000000000000000000000000000000000000000000000000000000000000010000000000000000000000000000000000000000000000000000000000000020000000000000000000000000000000000000000000000000000000000000006091d193da0f5ca12e0b64ae051db88cffb4517153b096befd3cbf75399e5ebc411c618a644de0309fd49cd76ccce7f8400383f75997d5bf6ab51d8f973724c5a9d0b7e37d86cc4597bfd27949bf75a90af5089b61f09b823c36a490977c47e18d000000000000000000000000000000000000000000000000000000000000000147666adff8c193d835850880d29e76b5a988837a696ef6fcdb183dea1c1e333a\",\"result\":\"success\",\"hash\":\"0xb4ec7911a692e6b6b1371492ab021ef70c4d69f19e89b7939e300c82dfbec1e9\",\"max_fee_per_gas\":\"2500000014\",\"revert_reason\":null,\"confirmation_duration\":[0,1.5e4],\"transaction_burnt_fee\":\"813645\",\"type\":2,\"token_transfers_overflow\":null,\"confirmations\":246,\"position\":0,\"max_priority_fee_per_gas\":\"2500000000\",\"transaction_tag\":null,\"created_contract\":null,\"value\":\"0\",\"from\":{\"ens_domain_name\":null,\"hash\":\"0x199CCf7f33A1D9E993529E92274586a22d15D5E7\",\"implementations\":[],\"is_contract\":false,\"is_scam\":false,\"is_verified\":false,\"metadata\":null,\"name\":null,\"private_tags\":[],\"proxy_type\":null,\"public_tags\":[],\"watchlist_names\":[]},\"gas_used\":\"116235\",\"status\":\"ok\",\"to\":{\"ens_domain_name\":null,\"hash\":\"0xaF527FC0a52EBb4676c64E08E59b15E442978618\",\"implementations\":[{\"address\":\"0x5C62eCF30E917E0104598A4f0994CA52378bb4fA\",\"name\":\"NodeDeposit\"}],\"is_contract\":true,\"is_scam\":false,\"is_verified\":true,\"metadata\":null,\"name\":\"ERC1967Proxy\",\"private_tags\":[],\"proxy_type\":\"eip1967\",\"public_tags\":[],\"watchlist_names\":[]},\"authorization_list\":[],\"method\":\"stake\",\"fee\":{\"type\":\"actual\",\"value\":\"290587500813645\"},\"actions\":[],\"gas_limit\":\"118325\",\"gas_price\":\"2500000007\",\"decoded_input\":{\"method_call\":\"stake(bytes[] _validatorPubkeys, bytes[] _validatorSignatures, bytes32[] _depositDataRoots)\",\"method_id\":\"ca2b87af\",\"parameters\":[{\"name\":\"_validatorPubkeys\",\"type\":\"bytes[]\",\"value\":[\"0x8d4024dc3e7dcf5ea768bb74405858d983930d29b3379961f06ee4fe6dd2583594beca3cebc1b8f3b65d7c3b76928649\"]},{\"name\":\"_validatorSignatures\",\"type\":\"bytes[]\",\"value\":[\"0x91d193da0f5ca12e0b64ae051db88cffb4517153b096befd3cbf75399e5ebc411c618a644de0309fd49cd76ccce7f8400383f75997d5bf6ab51d8f973724c5a9d0b7e37d86cc4597bfd27949bf75a90af5089b61f09b823c36a490977c47e18d\"]},{\"name\":\"_depositDataRoots\",\"type\":\"bytes32[]\",\"value\":[\"0x47666adff8c193d835850880d29e76b5a988837a696ef6fcdb183dea1c1e333a\"]}]},\"token_transfers\":null,\"base_fee_per_gas\":\"7\",\"timestamp\":\"2025-03-24T10:30:55.000000Z\",\"nonce\":780,\"transaction_types\":[\"contract_call\"],\"exchange_rate\":null,\"block_number\":2134349,\"has_error_in_internal_transactions\":false},{\"priority_fee\":\"298255000000000\",\"tx_burnt_fee\":\"835114\",\"raw_input\":\"0xca2b87af0000000000000000000000000000000000000000000000000000000000000060000000000000000000000000000000000000000000000000000000000000010000000000000000000000000000000000000000000000000000000000000001c000000000000000000000000000000000000000000000000000000000000000010000000000000000000000000000000000000000000000000000000000000020000000000000000000000000000000000000000000000000000000000000003089ef4fd6c0b783ce7305a83cd5aa095b9fb15ae3bdb0f3ea5a5c0dd46b3d52b84514266f2a0279a8f072de91ba225859000000000000000000000000000000000000000000000000000000000000000000000000000000000000000000000001000000000000000000000000000000000000000000000000000000000000002000000000000000000000000000000000000000000000000000000000000000608e1f3e96f96aeb49d3d1a6f8b1576e19b6a66d895c6c5b65a12f79ffe69c2d241193c1ccf8f4ad4f58c8f56edb71119b10fb0fdb4b653a0916445b8f91c2d739fb893987d39f4a0dac6b5bc743cc0d5ef777e5254b8e95af59cc5dade7d3922000000000000000000000000000000000000000000000000000000000000000011bf8a88c25707ee88fe5cb8ba7edda9cc49cd679d72a60ad7e93a98bc91f3226\",\"result\":\"success\",\"hash\":\"0xeae805c0cce2844d9daf4002d64567f3bd0ceea8b48b82245ec9f964a07c5b06\",\"max_fee_per_gas\":\"2500000014\",\"revert_reason\":null,\"confirmation_duration\":[0,1.5e4],\"transaction_burnt_fee\":\"835114\",\"type\":2,\"token_transfers_overflow\":null,\"confirmations\":247,\"position\":0,\"max_priority_fee_per_gas\":\"2500000000\",\"transaction_tag\":null,\"created_contract\":null,\"value\":\"0\",\"from\":{\"ens_domain_name\":null,\"hash\":\"0x199CCf7f33A1D9E993529E92274586a22d15D5E7\",\"implementations\":[],\"is_contract\":false,\"is_scam\":false,\"is_verified\":false,\"metadata\":null,\"name\":null,\"private_tags\":[],\"proxy_type\":null,\"public_tags\":[],\"watchlist_names\":[]},\"gas_used\":\"119302\",\"status\":\"ok\",\"to\":{\"ens_domain_name\":null,\"hash\":\"0xaF527FC0a52EBb4676c64E08E59b15E442978618\",\"implementations\":[{\"address\":\"0x5C62eCF30E917E0104598A4f0994CA52378bb4fA\",\"name\":\"NodeDeposit\"}],\"is_contract\":true,\"is_scam\":false,\"is_verified\":true,\"metadata\":null,\"name\":\"ERC1967Proxy\",\"private_tags\":[],\"proxy_type\":\"eip1967\",\"public_tags\":[],\"watchlist_names\":[]},\"authorization_list\":[],\"method\":\"stake\",\"fee\":{\"type\":\"actual\",\"value\":\"298255000835114\"},\"actions\":[],\"gas_limit\":\"121416\",\"gas_price\":\"2500000007\",\"decoded_input\":{\"method_call\":\"stake(bytes[] _validatorPubkeys, bytes[] _validatorSignatures, bytes32[] _depositDataRoots)\",\"method_id\":\"ca2b87af\",\"parameters\":[{\"name\":\"_validatorPubkeys\",\"type\":\"bytes[]\",\"value\":[\"0x89ef4fd6c0b783ce7305a83cd5aa095b9fb15ae3bdb0f3ea5a5c0dd46b3d52b84514266f2a0279a8f072de91ba225859\"]},{\"name\":\"_validatorSignatures\",\"type\":\"bytes[]\",\"value\":[\"0x8e1f3e96f96aeb49d3d1a6f8b1576e19b6a66d895c6c5b65a12f79ffe69c2d241193c1ccf8f4ad4f58c8f56edb71119b10fb0fdb4b653a0916445b8f91c2d739fb893987d39f4a0dac6b5bc743cc0d5ef777e5254b8e95af59cc5dade7d39220\"]},{\"name\":\"_depositDataRoots\",\"type\":\"bytes32[]\",\"value\":[\"0x1bf8a88c25707ee88fe5cb8ba7edda9cc49cd679d72a60ad7e93a98bc91f3226\"]}]},\"token_transfers\":null,\"base_fee_per_gas\":\"7\",\"timestamp\":\"2025-03-24T10:30:40.000000Z\",\"nonce\":779,\"transaction_types\":[\"contract_call\"],\"exchange_rate\":null,\"block_number\":2134348,\"has_error_in_internal_transactions\":false},{\"priority_fee\":\"290587500000000\",\"tx_burnt_fee\":\"813645\",\"raw_input\":\"0xca2b87af0000000000000000000000000000000000000000000000000000000000000060000000000000000000000000000000000000000000000000000000000000010000000000000000000000000000000000000000000000000000000000000001c0000000000000000000000000000000000000000000000000000000000000000100000000000000000000000000000000000000000000000000000000000000200000000000000000000000000000000000000000000000000000000000000030a7c23b7d3e5dd8a1ba59834939ca453069b11e9129066088b3dc82cea7133f2f6f64bcf378c2d33aaf88f8f1ad7dc7b800000000000000000000000000000000000000000000000000000000000000000000000000000000000000000000000100000000000000000000000000000000000000000000000000000000000000200000000000000000000000000000000000000000000000000000000000000060a802ca35fb87ca616d8d8acc1b3366442457fb881237c4ed527275e238f4cb9760a63323d5d48f8052184fced025dc48171bf44337bc64363a5c4b6484ff63a40a650ac71b53cc583be0690f0773060104e0c90b921457175d8cd9efcd0875c60000000000000000000000000000000000000000000000000000000000000001f555eb9e541dedfe8cf8a8fd5094a6d4504cc1708c296d9e61ee1cfbb4ea21a1\",\"result\":\"success\",\"hash\":\"0xd224893c4a6fb78217e553cbb6d668a9d0e256484cf579d282ac660fb488083a\",\"max_fee_per_gas\":\"2500000014\",\"revert_reason\":null,\"confirmation_duration\":[0,1.5e4],\"transaction_burnt_fee\":\"813645\",\"type\":2,\"token_transfers_overflow\":null,\"confirmations\":249,\"position\":0,\"max_priority_fee_per_gas\":\"2500000000\",\"transaction_tag\":null,\"created_contract\":null,\"value\":\"0\",\"from\":{\"ens_domain_name\":null,\"hash\":\"0x199CCf7f33A1D9E993529E92274586a22d15D5E7\",\"implementations\":[],\"is_contract\":false,\"is_scam\":false,\"is_verified\":false,\"metadata\":null,\"name\":null,\"private_tags\":[],\"proxy_type\":null,\"public_tags\":[],\"watchlist_names\":[]},\"gas_used\":\"116235\",\"status\":\"ok\",\"to\":{\"ens_domain_name\":null,\"hash\":\"0xaF527FC0a52EBb4676c64E08E59b15E442978618\",\"implementations\":[{\"address\":\"0x5C62eCF30E917E0104598A4f0994CA52378bb4fA\",\"name\":\"NodeDeposit\"}],\"is_contract\":true,\"is_scam\":false,\"is_verified\":true,\"metadata\":null,\"name\":\"ERC1967Proxy\",\"private_tags\":[],\"proxy_type\":\"eip1967\",\"public_tags\":[],\"watchlist_names\":[]},\"authorization_list\":[],\"method\":\"stake\",\"fee\":{\"type\":\"actual\",\"value\":\"290587500813645\"},\"actions\":[],\"gas_limit\":\"118325\",\"gas_price\":\"2500000007\",\"decoded_input\":{\"method_call\":\"stake(bytes[] _validatorPubkeys, bytes[] _validatorSignatures, bytes32[] _depositDataRoots)\",\"method_id\":\"ca2b87af\",\"parameters\":[{\"name\":\"_validatorPubkeys\",\"type\":\"bytes[]\",\"value\":[\"0xa7c23b7d3e5dd8a1ba59834939ca453069b11e9129066088b3dc82cea7133f2f6f64bcf378c2d33aaf88f8f1ad7dc7b8\"]},{\"name\":\"_validatorSignatures\",\"type\":\"bytes[]\",\"value\":[\"0xa802ca35fb87ca616d8d8acc1b3366442457fb881237c4ed527275e238f4cb9760a63323d5d48f8052184fced025dc48171bf44337bc64363a5c4b6484ff63a40a650ac71b53cc583be0690f0773060104e0c90b921457175d8cd9efcd0875c6\"]},{\"name\":\"_depositDataRoots\",\"type\":\"bytes32[]\",\"value\":[\"0xf555eb9e541dedfe8cf8a8fd5094a6d4504cc1708c296d9e61ee1cfbb4ea21a1\"]}]},\"token_transfers\":null,\"base_fee_per_gas\":\"7\",\"timestamp\":\"2025-03-24T10:30:10.000000Z\",\"nonce\":778,\"transaction_types\":[\"contract_call\"],\"exchange_rate\":null,\"block_number\":2134346,\"has_error_in_internal_transactions\":false}]";
        private const string Blks = "[{\"base_fee_per_gas\":\"7\",\"burnt_fees\":\"0\",\"burnt_fees_percentage\":null,\"difficulty\":\"0\",\"gas_limit\":\"30000000\",\"gas_target_percentage\":-100.0,\"gas_used\":\"0\",\"gas_used_percentage\":0.0,\"hash\":\"0x3bc9d5e2b5f3ba8f07f7af7f923d7987dd64b959f6629d58e8c969cdabfa4d47\",\"height\":2171699,\"miner\":{\"ens_domain_name\":null,\"hash\":\"0x61f1E778661c15D23BD6590ba7D6E08a3277AA40\",\"implementations\":[],\"is_contract\":false,\"is_scam\":false,\"is_verified\":false,\"metadata\":null,\"name\":null,\"private_tags\":[],\"proxy_type\":null,\"public_tags\":[],\"watchlist_names\":[]},\"nonce\":\"0x0000000000000000\",\"parent_hash\":\"0x90e4a9cfb6ffb8653aa3e8f4d842e213a5449ab26a2388dff8c8c987670b72a2\",\"priority_fee\":0,\"rewards\":[],\"size\":1172,\"timestamp\":\"2025-03-30T23:11:40.000000Z\",\"total_difficulty\":\"0\",\"transaction_count\":0,\"transaction_fees\":\"0\",\"type\":\"block\",\"uncles_hashes\":[],\"withdrawals_count\":null},{\"base_fee_per_gas\":\"7\",\"burnt_fees\":\"0\",\"burnt_fees_percentage\":null,\"difficulty\":\"0\",\"gas_limit\":\"30000000\",\"gas_target_percentage\":-100.0,\"gas_used\":\"0\",\"gas_used_percentage\":0.0,\"hash\":\"0x90e4a9cfb6ffb8653aa3e8f4d842e213a5449ab26a2388dff8c8c987670b72a2\",\"height\":2171698,\"miner\":{\"ens_domain_name\":null,\"hash\":\"0xf45e4359321F9936Fb9989806F07F8cC62e04208\",\"implementations\":[],\"is_contract\":false,\"is_scam\":false,\"is_verified\":false,\"metadata\":null,\"name\":null,\"private_tags\":[],\"proxy_type\":null,\"public_tags\":[],\"watchlist_names\":[]},\"nonce\":\"0x0000000000000000\",\"parent_hash\":\"0x6f39465125820f4ef21e898ccf769c205968ece67f040e49baa10979a891dbf0\",\"priority_fee\":0,\"rewards\":[],\"size\":1172,\"timestamp\":\"2025-03-30T23:11:25.000000Z\",\"total_difficulty\":\"0\",\"transaction_count\":0,\"transaction_fees\":\"0\",\"type\":\"block\",\"uncles_hashes\":[],\"withdrawals_count\":null},{\"base_fee_per_gas\":\"7\",\"burnt_fees\":\"0\",\"burnt_fees_percentage\":null,\"difficulty\":\"0\",\"gas_limit\":\"30000000\",\"gas_target_percentage\":-100.0,\"gas_used\":\"0\",\"gas_used_percentage\":0.0,\"hash\":\"0x6f39465125820f4ef21e898ccf769c205968ece67f040e49baa10979a891dbf0\",\"height\":2171697,\"miner\":{\"ens_domain_name\":null,\"hash\":\"0xDd180c7B722eCfB4CDC4C0aEaA0b986095818f67\",\"implementations\":[],\"is_contract\":false,\"is_scam\":false,\"is_verified\":false,\"metadata\":null,\"name\":null,\"private_tags\":[],\"proxy_type\":null,\"public_tags\":[],\"watchlist_names\":[]},\"nonce\":\"0x0000000000000000\",\"parent_hash\":\"0xf6b85d3fecc58da96adf27cfb2391226aa03e815bd56a4cf1259c804b76b448c\",\"priority_fee\":0,\"rewards\":[],\"size\":1171,\"timestamp\":\"2025-03-30T23:11:10.000000Z\",\"total_difficulty\":\"0\",\"transaction_count\":0,\"transaction_fees\":\"0\",\"type\":\"block\",\"uncles_hashes\":[],\"withdrawals_count\":null},{\"base_fee_per_gas\":\"7\",\"burnt_fees\":\"0\",\"burnt_fees_percentage\":null,\"difficulty\":\"0\",\"gas_limit\":\"30000000\",\"gas_target_percentage\":-100.0,\"gas_used\":\"0\",\"gas_used_percentage\":0.0,\"hash\":\"0xf6b85d3fecc58da96adf27cfb2391226aa03e815bd56a4cf1259c804b76b448c\",\"height\":2171696,\"miner\":{\"ens_domain_name\":null,\"hash\":\"0x732ee1e439a4b46508D3b67cEa51393B01986D3f\",\"implementations\":[],\"is_contract\":false,\"is_scam\":false,\"is_verified\":false,\"metadata\":null,\"name\":null,\"private_tags\":[],\"proxy_type\":null,\"public_tags\":[],\"watchlist_names\":[]},\"nonce\":\"0x0000000000000000\",\"parent_hash\":\"0x3ca36b62087e6ee4c237ccda39681ccf9922344828f557509b8c47e83dc4aef4\",\"priority_fee\":0,\"rewards\":[],\"size\":1170,\"timestamp\":\"2025-03-30T23:10:55.000000Z\",\"total_difficulty\":\"0\",\"transaction_count\":0,\"transaction_fees\":\"0\",\"type\":\"block\",\"uncles_hashes\":[],\"withdrawals_count\":null}]";
        
        public static readonly Transaction[] Transactions = JsonConvert.DeserializeObject<Transaction[]>(Tx);
        
        public static readonly Block[] Blocks = JsonConvert.DeserializeObject<Block[]>(Blks);
    }
}
